:020000040800F2
:1000000020500020ED010008018A00084D7A000808
:10001000FD890008A11B0008ADA700080000000032
:10002000000000000000000000000000558C0008E7
:100030006D1C000800000000718A0008A58C0008F3
:10004000070200080702000807020008070200086C
:100050000702000807020008711C000807020008D8
:1000600007020008070200080D1D0008070200082B
:10007000070200080702000807020008070200083C
:100080000702000800000000490D000807020008F0
:10009000070200080702000807020008070200081C
:1000A000070200080702000807020008070200080C
:1000B0000702000807020008D98D0008070200089F
:1000C00007020008070200080702000807020008EC
:1000D00007020008070200089DA7000807020008A1
:1000E00007020008070200080702000807020008CC
:1000F00007020008070200080702000800000000CD
:10010000000000004583000800000000070200080E
:1001100007020008000000000702000807020008AC
:10012000070200080702000807020008070200088B
:10013000070200080000000000000000070200089D
:10014000070200080702000800000000000000008D
:10015000000000000000000000000000000000009F
:10016000000000000000000000000000070200087E
:10017000070200080000000000000000000000006E
:10018000000000000702000800000000000000005E
:10019000000000000000000000000000000000005F
:1001A000000000000000000007020008070200082D
:1001B000070200080702000807020008000000000C
:1001C000000000000702000800000000000000001E
:1001D0000702000807020008DFF80CD000F094FBCB
:1001E0000048004769AE00082050002006488047BC
:1001F00006480047FEE7FEE7FEE7FEE7FEE7FEE70C
:10020000FEE7FEE7FEE7FEE7C58D0008D90100081E
:100210002DE9F05F0546002092469B46884606463B
:10022000814640241BE0284641464746224600F0CE
:100230002CF953465A46C01A914110D3114618461C
:10024000224600F013F92D1A67EB01084F462246AB
:100250000120002100F00AF917EB00094E41201E91
:10026000A4F10104DFDC484631462A464346BDE896
:10027000F09F40EA01039B0703D009E008C9121F61
:1002800008C0042AFAD203E011F8013B00F8013B50
:10029000521EF9D27047D2B201E000F8012B491E7C
:1002A000FBD270470022F6E710B513460A46044613
:1002B0001946FFF7F0FF204610BD421C10F8011B45
:1002C0000029FBD1801A70472DE9FE4F81EA030413
:1002D00004F0004421F0004100944FF0000B23F0A3
:1002E000004350EA01045ED052EA03045BD0C3F33A
:1002F0000A54C1F30A552C44A4F2F3340194A0FB30
:100300000254C1F3130141F48011C3F3130343F406
:10031000801301FB024400FB034E840A970A44EA5F
:10032000815447EA8357A4FB076802958D0A05FBB1
:1003300007854FEA932C04FB0C542705029D4FEAD6
:10034000065847EA1637B5EB08056EEB070C870E23
:10035000920E47EA811742EA8312A7FB0201B6EB2D
:100360000B0164EB00042B0D43EA0C335E1844EBE5
:100370001C50DA465146E7FB0201C5F313044FEA6D
:100380000B3343EA14534FEA0432019C43EA060359
:10039000A4F10C040294009CCDE900B400F020F913
:1003A00003B0BDE8F08F00200146F9E730B5041E28
:1003B00071F1000404DB4FF00044404264EB0101A2
:1003C000141E73F1000405DB1C464FF0004352423B
:1003D00063EB0403101A8B4101D3012030BD0020D0
:1003E00030BD00F0004230F000400AD0C10D01F5F0
:1003F0006071C0F3160042EA0151C2084007114380
:10040000704700200146704701F0004330B421F0EE
:10041000004150EA010206D00A0DA2F56072C1F354
:100420001301002A02DC30BC00207047440F44EA6C
:10043000C104C100E01830BC00EBC25000F08AB823
:1004400030B50B46014600202022012409E021FAA4
:1004500002F59D4205D303FA02F5491B04FA02F5A1
:100460002844151EA2F10102F1DC30BD202A04DB74
:10047000203A00FA02F1002070479140C2F12003B7
:1004800020FA03F3194390407047202A04DB203AF6
:1004900021FA02F00021704721FA02F3D040C2F1A4
:1004A0002002914008431946704700000FB40B002A
:1004B00010B58AB00FA900910E994FF00004234A9D
:1004C000CC60214CCDE9064200D004236FF00042FD
:1004D000CDE901321E4A089202466B46002000F028
:1004E000D7FA0AB010BC5DF814FBF0B585B007462A
:1004F0004FF0FF300091CDE901011E460020154666
:100500000C4604903B466A46314604A8FFF7CEFFEE
:1005100004990346601825B109B1024600E022465D
:100520002A6000290ED0002B02DD0099814209D0FB
:100530000094001BCDE901043B466A46314604A8FD
:10054000FFF7B4FF05B0F0BDC90C0008E70C0008C8
:100550005D0900080029A8BF7047401C490008BF7A
:1005600020F00100704710B4B0FA80FC00FA0CF0E3
:1005700050EA010404BF10BC704749B1CCF120041B
:1005800021FA04F411FA0CF118BF012121430843A8
:10059000A3EB0C01CB1D4FEA00614FEA102042BFD4
:1005A000002010BC704700EBC35010440029A4BFCA
:1005B00010BC7047401C490008BF20F0010010BC6F
:1005C000704710B5141E73F1000408DA401C41F1A5
:1005D000000192185B411A4301D120F0010010BDC7
:1005E0002DE9F04D92469B4611B1B1FA81F202E03D
:1005F000B0FA80F220329046FFF738FF04460F46EB
:1006000040EA0A0041EA0B0153465A46084313D018
:10061000114653EA010019D0C8F140025046FFF7D5
:1006200034FF05460E46504659464246FFF71EFF28
:10063000084305D0012004E020463946BDE8F08D8E
:100640000020054346EAE0762C4337430A986305C9
:10065000E40AA0EB08000022FD0A44EA47540A30ED
:1006600002D500200146E9E7010510196941DDE9DD
:10067000084500196941BDE8F04DA2E72DE9FE4F9C
:10068000804681EA0300C00F0C46009021F0004133
:1006900023F00045B8EB0200A94105D240462146AF
:1006A00090461C460B46024623F00040104347D0BC
:1006B000270DC7F30A00C3F30A510290401A0190B4
:1006C00040286BDAC3F3130040F4801B0098924675
:1006D00020B10023D2EB030A63EB0B0B01985946C0
:1006E000C0F140025046FFF7C1FE06460D46504697
:1006F0005946019A00F020F910EB080061410024EE
:1007000087EA115284EAE7731A4340D0009A62B331
:10071000019A012A4FEA075215DC001B61EB020126
:100720004FF0004202EA0752CDE90042001C41F5B9
:10073000801132462B46FFF753FF03B0BDE8F08F20
:1007400040462146F9E7001B61EB0201001C41F520
:10075000801300185B412018A2F5001747EB030136
:1007600040EAD570B6196D4111E06D084FEA3606C2
:1007700045EAC0754FEA0752001B61EB0201001CFD
:1007800041F5801149084FEA3000001951413246C5
:100790002B4603B0BDE8F04FFFF713BF00980122CE
:1007A00040000023D0EB020263EBE0730098214687
:1007B0004FEAE074B8EB000061EB0401E9E783F075
:1007C00000435BE781F0004158E72DE9F04D81EAF5
:1007D000030404F0004B21F0004514464FF0000ADA
:1007E00023F0004150EA050220D054EA01021DD056
:1007F000C5F30A570246C5F31303C1F31300C1F34F
:100800000A5640F4801543F48013A7EB0608101B2A
:10081000D64608F2FD3873EB050002D308F1010853
:1008200001E092185B41B8F1000F03DA00200146A5
:10083000BDE8F08D00204FF48011064684460EE09E
:10084000171B73EB050705D3121B63EB0503064368
:100850004CEA010C49084FEA300092185B4150EA1B
:100860000107EDD152EA030012D082EA040083EAC4
:100870000501084305D0101BAB4106D2012200231D
:1008800006E000224FF0004302E06FF00102531037
:100890001AEB06004CEB085110EB0A0041EB0B0180
:1008A000BDE8F04DFFF78DBEC1F30A52C1F313014D
:1008B00040F2FF3341F480119A4202DA00200146EF
:1008C000704740F233439A42A2F2334202DC524272
:1008D000FFF7DBBDFFF7CABD30B5041E71F10004A0
:1008E00004DB4FF00044404264EB0101141E73F13D
:1008F000000405DB1C464FF00043524263EB040347
:10090000994208BF904230BD1CB509480090094883
:1009100001900546009C06E0E06840F0010394E881
:10092000070098471034AC42F6D3FFF759FC00009B
:10093000E0C4000800C50008202A06DBCB17203AD7
:1009400041FA02F043EAE07306E041FA02F3D040D4
:10095000C2F120029140084319467047C0B24FF4DB
:10096000F05100F0D1B900002DE9FF4F087883B0B5
:100970009946FF2805D0491C2D2804D000240020CA
:1009800008E000200BE00124F9E700EB800003EB16
:100990004000491C0B78FF2BF7D104B140420023E3
:1009A0000293147819461D462D2C01D02B2C04D10E
:1009B000521C2D2C13D000240294AA461478FF2C2C
:1009C0000FD00A25A3FB057801FB05814FF0000C31
:1009D00003FB0C11521CE3194AEB0101EEE7012461
:1009E000EAE7814453EA010002D019F5C87F06DA2C
:1009F00003980021C0E9001107B0BDE8F08F002581
:100A0000AE4E2F46DFF8B882184600F091F9CDE9D6
:100A10000001B9F1000002DAC9F1000400E0044667
:100A20000023A74A1AEB030B42EB045A12E0E0073B
:100A300007D02A46334638464146FFF745FC07466D
:100A400088462A46334610461946FFF73DFC0546C0
:100A50000E466410002CEAD1DDE90001B9F1000F67
:100A60005A46534606DAFFF7B0FE3A464346FFF7CA
:100A7000ACFE05E0FFF728FC3A464346FFF724FCAE
:100A8000029A0AB181F00041039AC2E90001B3E77A
:100A90002DE9FF4F1F468DB0D7E901464FF0FF38D3
:100AA0002E2045464FF000090B90B9696D1C0E9839
:100AB0008847396A824688470028F6D1BAF1FF3F55
:100AC0000AD024F4D064002E11DDBAF12B0F08D027
:100AD000BAF12D0F0BD102E0404611B08DE744F47E
:100AE0008064B9696D1C0E9888478246761E6946F7
:100AF000600501D52D2000E02B208DF8000001F1CC
:100B0000010B0DF1200809E0B9696D1C0E988847AA
:100B100082460F9844F40074761E0560002E02DDB4
:100B2000BAF1300FF0D00B998A453ED144F08004E1
:100B300006E00F99681CA9F1010944F400740860EB
:100B4000B9696D1C761E0E98884782463028F0D011
:100B50002BE00B998A4505D1200603D444F080048C
:100B6000761E18E050460AF011FD08B30DF113028D
:100B7000761EAAF1300044F40074934506D20BF8B7
:100B8000010B200607D5A9F1010003E0200602D4DD
:100B900009F101008146A00502D50F99681C086083
:100BA000B9696D1C0E9888478246002ED1DC53E04F
:100BB000002E51DDBAF1650F02D0BAF1450F4BD1CD
:100BC000A00549D5B9696D1C24F44074761E0E98B1
:100BD00088478246002E0CDD2B2804D0BAF12D0F59
:100BE00007D144F48074B9696D1C0E988847824619
:100BF000761EE00501D52D2100E02B2108F8011B10
:100C0000CDF82C8021E00DF12901761E44F400740A
:100C100088450CD2AAF1300010F0FF0088F80000DF
:100C200002D10B99884509D908F1010806E0E005D1
:100C300001D5244801E042F20F708146B9696D1C6C
:100C40000E98884782460F980560002E04DD5046B6
:100C50000AF09CFC0028D6D1F9690E988847FF203D
:100C60008BF8000088F800000020069007904B46A3
:100C70006A4608A906A8FFF777FEA00502D46FF020
:100C800001002AE714F0240F0AD0E00714D1DDE9AF
:100C900006123868031D3B600068C0E900120BE0D3
:100CA000DDE90601FFF7B0FB0146E00704D1386833
:100CB000021D3A600068016028460EE700001440FB
:100CC0000000F03FF1D8FFFF426842B1016811F81F
:100CD000013B23B1521EC0E90012184670470121A2
:100CE000C160881E704742685AB1C368016843B941
:100CF00083688B4205D0491E521CC0E900120020B7
:100D000070474FF0FF3070477F2801D9002208E07C
:100D1000064A02EB5002C007127800D1120902F015
:100D20000F0201209040084070470000E0BC00081E
:100D30000EB540F2334202920022CDE90022134662
:100D4000FFF74EFC03B000BD80B542F2E400C2F2F2
:100D5000000001F09BFE80BD80B58AB0089007912D
:100D600000200590079804900898006807F0CEF9D5
:100D700002900898006807F07FF90190029828B95E
:100D8000FFE70198002800F0A780FFE708980068B7
:100D9000C0688001002835D5FFE70898407F01280A
:100DA00030D1FFE70898007F01282BD1FFE7012011
:100DB0000490FFE708980068006800F040010020F8
:100DC000B0EB911F19D1FFE705980021CAF240311D
:100DD00088420ED3FFE70899C86D40F01000C8653F
:100DE0000899086E40F00100086601208DF8270080
:100DF00076E0059801300590DCE70898016840200E
:100E00000860FFE70498022813D0FFE708980068FD
:100E100007F07CF960B1FFE70898006807F05EF919
:100E200028B9FFE70898006807F0B0F9FFE7FFE787
:100E3000FFE70498012813D0FFE70898006807F03F
:100E40001BF960B1FFE70898006807F047F928B977
:100E5000FFE70898006807F023F9FFE7FFE7FFE7DF
:100E600004980090022807D0FFE70098032806D1D5
:100E7000FFE70C20039005E00820039002E0042027
:100E80000390FFE703F060F90690FFE70898006819
:100E90008068039908421ED0FFE703F055F90699D0
:100EA000401A062816D3FFE708980068806803995F
:100EB00008420ED0FFE70899C86D40F01000C865E1
:100EC0000899086E40F00100086601208DF827009F
:100ED00006E0FFE7DAE7FFE700208DF82700FFE7ED
:100EE0009DF827000AB080BD80B584B002900298BA
:100EF000006807F0F3F800900298006807F0F6F831
:100F000000284BD0FFE70098002847D1FFE7029860
:100F10000068806800F00D00012809D1FFE7029801
:100F2000006807F049F802980168032008600DE0A6
:100F30000299C86D40F01000C8650299086E40F033
:100F40000100086601208DF80F002BE003F0FCF88B
:100F50000190FFE7029800688068C007E8B1FFE7EA
:100F600003F0F2F80199401A032815D3FFE702981D
:100F700000688068C00770B1FFE70299C86D40F053
:100F80001000C8650299086E40F001000866012053
:100F90008DF80F0006E0FFE7DCE7FFE700208DF8A3
:100FA0000F00FFE79DF80F0004B080BD80B584B04E
:100FB0000290002000900298006807F097F800283F
:100FC00074D1FFE70298006880683F21C8F20001F1
:100FD00008420ED0FFE70299C86D40F01000C865C6
:100FE0000299086E40F00100086601208DF80F009C
:100FF00060E00298006806F0F9FF40F20030C5F2A8
:10100000000007F011F8000200281CD5FFE740F2AD
:101010000400C2F200000068800942F66351C0F289
:101020003E51A0FB0110800900EB40010C2000EBB9
:1010300081000090FFE7009820B1FFE70098013899
:101040000090F8E7FFE703F07FF80190FFE70298D0
:1010500000680068C00740BBFFE70298006807F01F
:1010600045F828B9FFE70298006806F0BFFFFFE7E0
:1010700003F06AF80199401A032815D3FFE7029894
:1010800000680068C00770B9FFE70299C86D40F0BA
:101090001000C8650299086E40F001000866012042
:1010A0008DF80F0006E0FFE7D1E7FFE700208DF89D
:1010B0000F00FFE79DF80F0004B080BD80B5DAB0E7
:1010C00059908DF8631100F087FF41F60401C2F2D8
:1010D00000011791087040F20800C2F20000119060
:1010E000006807F0CBFD1198406807F0C7FD119824
:1010F000806807F0C3FD1198C06807F0BFFD119824
:10110000006907F0BBFD599801681391416814917B
:101110008068129042F67C30C2F200000068FFF74F
:1011200060F9129A139B84461498CDF854C08C46EB
:1011300015994CEC101B694681ED020B4A60086062
:101140004CF2B632C0F600020DF1630016904FF477
:1011500080710AF005F9169807F090FD179800784D
:10116000C00798B9FFE75999CB6A086B91F834200A
:1011700069464A6008604CF20432C0F600020DF184
:1011800063004FF480710AF0EBF817E043F20000BF
:10119000C2F2000000F13C016A46516000F15C01BE
:1011A000116000F17C034CF2A042C0F600020DF188
:1011B00063004FF480710AF0D3F8FFE70DF163008C
:1011C00007F05CFD4CF26230C0F6000007F056FDFF
:1011D0004CF24E40C0F6000007F050FD00208DF8A4
:1011E0006200FFE79DF86200072800F26B81FFE7CD
:1011F0009DF8620000F10B034CF26932C0F6000268
:101200000DF1630010904FF480710AF0A9F8109866
:1012100007F034FD00F0E0FE41F60401C2F20001E7
:1012200008709DF8620007282BD1FFE741F6040003
:10123000C2F200000078C00718BBFFE74CF2044080
:10124000C0F6000007F01AFD9DF862104BF66870BA
:10125000C0F6000050F821304CF2C242C0F6000245
:101260000DF163000F904FF480710AF079F80F9838
:1012700007F004FD4CF2FF30C0F6000007F0FEFC62
:1012800019E19DF862009DF86311884207D1FFE7DC
:101290004CF20A40C0F6000007F0F0FCFFE79DF8B2
:1012A000620080B1FFE79DF8620001280BD0FFE7E4
:1012B0009DF86200022806D0FFE79DF8620003282F
:1012C00040F08780FFE79DF8620001460E910328F9
:1012D00000F27D800E99DFE801F002203E5C9DF86F
:1012E00062104BF66870C0F6000050F821000D90B7
:1012F00059980069FFF775F80D9B41EC100B684693
:1013000080ED000B4CF2F122C0F600020DF16300FB
:101310004FF480710AF024F85AE09DF862104BF601
:101320006870C0F6000050F821000C905998406990
:10133000FFF757F80C9B41EC100B684680ED000B53
:101340004CF2F122C0F600020DF163004FF48071FF
:101350000AF006F83CE09DF862104BF66870C0F6A3
:10136000000050F821000B9059988069FFF739F878
:101370000B9B41EC100B684680ED000B4CF2F12208
:10138000C0F600020DF163004FF4807109F0E8FF30
:101390001EE09DF862104BF66870C0F6000050F831
:1013A00021000A905998C069FFF71BF80A9B41EC8D
:1013B000100B684680ED000B4CF2F122C0F60002E3
:1013C0000DF163004FF4807109F0CAFF00E0FFE700
:1013D0005EE09DF86200052846D1FFE707F0D2FDE8
:1013E00044F20400C2F2000080ED000A90ED000A11
:1013F00043F60001C2F20001049191ED062A91ED3D
:10140000071A20EE020A30EE010A81ED0A0A9DF861
:1014100062204BF66871C0F6000151F82210099164
:101420000068FEF7DEFF0246049805920A46059919
:1014300042EC101B8DED060B806AFEF7D2FF9DED8E
:10144000060B099B41EC110B684680ED021B80EDF9
:10145000000B4CF2C722C0F600020DF163004FF4FE
:10146000807109F07DFF12E09DF862104BF6687004
:10147000C0F6000050F821304CF2C242C0F6000223
:101480000DF163004FF4807109F06AFFFFE7FFE799
:101490000DF1630007F0F2FB9DF862009DF8631107
:1014A000884207D1FFE74CF2FF30C0F6000007F09A
:1014B000E5FBFFE7FFE7FFE79DF8620001308DF8ED
:1014C00062008FE64CF2F830C0F6000007F0D6FB61
:1014D0005AB080BD80B5C8B04790469100200590B5
:1014E000479B4CF2BB42C0F6000206A802904FF4A4
:1014F0008071039109F034FF029807F0BFFB4CF2B2
:10150000F130C0F6000007F0B9FB4CF28030C0F6B5
:10151000000007F0B3FB02980399FEF7C3FEFFE754
:101520000598FE283AD8FFE7FFE742F27030C2F292
:10153000000009F0A5FA08B1FFE7F6E742F27030C3
:10154000C2F200000DF1130109F05AFA9DF81300E0
:101550000D2805D0FFE79DF813000A2801D1FFE709
:101560001CE09DF81300A0B1FFE79DF81300059A59
:1015700006A988540598013005909DF813008DF850
:10158000110000208DF812000DF1110007F076FB1C
:10159000FFE7FFE70A2002F001FAC1E7059A06A972
:1015A0000191002088544CF2D000C0F6000007F0F2
:1015B00065FB019809F0F0FE51EC100BFEF724FFDB
:1015C000469908604CF27530C0F6000007F056FBF3
:1015D0004CF28030C0F6000007F050FB4CF2F830BF
:1015E000C0F6000007F04AFB48B080BD80B584B06B
:1015F00043F20001C2F2000144F65470C4F24F20DD
:10160000C1F89C004BF66070C0F6000000684FF413
:10161000006209F0CDF80020C0F60100006800214A
:10162000C2F6FE710840B0F1005F4FD1FFE7EFF363
:10163000108072B6029041F21801C4F2020100203B
:101640000090086004F03CFB02F07EF900984EF236
:101650001001CEF2000108604EF21401CEF200013A
:1016600008604EF21801CEF2000108608DF8070004
:10167000FFE79DF80700022819D8FFE79DF807202B
:101680004EF28011CEF200014FF0FF3041F82200FF
:101690009DF807204EF28021CEF2000141F8220091
:1016A000FFE79DF8070001308DF80700E1E762B61B
:1016B0000020C0F6010000680390039880F30888BA
:1016C0000420C0F6010000688047FFE704B080BD39
:1016D00080B5ADF5107D00208DF83E0243F6000088
:1016E000C2F200000D9000F05DFA00F075FC0146BA
:1016F00041F60400C2F2000001700078C107072023
:10170000002918BF08208DF83A014CF27130C0F65C
:10171000000007F0B3FA0D989DF83E12FFF7CEFCDB
:10172000FFE7FFE742F27030C2F2000009F0A8F9CB
:1017300008B1FFE7F6E742F27030C2F200000DF2A6
:101740003F2109F05DF99DF83F021B286FD1FFE7AB
:101750004CF27130C0F6000007F090FA9DF83E128E
:1017600043F60000C2F20000FFF7A8FCFFE742F2D8
:101770007030C2F2000009F083F908B1FFE7F6E724
:1017800042F27030C2F200000DF23D1109F038F95A
:10179000FFE742F27030C2F2000009F071F908B1BF
:1017A000FFE7F6E742F27030C2F200004FA909F0FD
:1017B00027F99DF83D015B2838D1FFE79DF83C01F2
:1017C000412812D1FFE79DF83E0228B9FFE79DF8B6
:1017D0003A0101380C9004E09DF83E0201380C906B
:1017E000FFE70C988DF83E0211E09DF83C0142287D
:1017F0000CD1FFE79DF83E02421C9DF83A11B2FB66
:10180000F1F000FB11208DF83E02FFE7FFE74CF2FC
:101810007130C0F6000007F031FA9DF83E1243F631
:101820000000C2F20000FFF749FCFFE7B4E19DF8B9
:101830003F020D2806D0FFE79DF83F020A2840F03E
:10184000AA81FFE74CF27130C0F6000007F016FAEB
:101850009DF83E1243F60000C2F20000FFF72EFC96
:101860009DF83E0201460B91072800F292810B99E8
:10187000DFE811F0080050009000A800C0000A0145
:101880000B01490143F60000C2F200000A9000F18A
:1018900010014CF27920C0F60000FFF71BFE0A98F9
:1018A00090ED040AB5EE400AF1EE10FA0EDDFFE706
:1018B00043F60000C2F2000090ED040AB1EE041AF3
:1018C000B4EE410AF1EE10FA0FDBFFE74CF29002A2
:1018D000C0F600020DF59F7009904FF4807109F079
:1018E0003FFD099807F0CAF913E04BF66470C0F6A3
:1018F0000000006843F60001C2F200014FF40062EC
:1019000008F056FF4CF22C00C0F6000007F0B6F9C4
:10191000FFE73FE143F60000C2F20000089000F14B
:1019200014014CF24C20C0F60000FFF7D3FD0898DC
:1019300090ED050AB5EE400AF1EE10FA0EDDFFE774
:1019400043F60000C2F2000090ED050AB0EE001A66
:10195000B4EE410AF1EE10FA07DBFFE74CF24C005F
:10196000C0F6000007F08AF913E04BF66470C0F689
:101970000000006843F60001C2F200014FF400626B
:1019800008F016FF4CF20B00C0F6000007F076F9E5
:10199000FFE7FFE043F60000C2F20000079000F10D
:1019A00018014CF2FA10C0F60000FFF793FD0799FA
:1019B0004BF66470C0F6000000684FF4006208F057
:1019C000F7FEE7E043F60000C2F20000069000F1E7
:1019D0001C014CF22320C0F60000FFF77BFD0699A6
:1019E0004BF66470C0F6000000684FF4006208F027
:1019F000DFFECFE04CF27530C0F6000007F03EF994
:101A0000FFE744F20C00C2F200000068FEF7E9FCB8
:101A100041EC100B684680ED000B4CF2C542C0F65D
:101A200000020DF1390005904FF4807109F098FC27
:101A30004CF25A30C0F6000007F020F9059807F084
:101A40001DF94FF47A7001F0A9FFFFE742F2703000
:101A5000C2F2000009F014F808B1FFE7F6E742F21D
:101A60007030C2F200000DF2391108F0C9FF9DF884
:101A7000390108B1FFE706E04CF27530C0F600000E
:101A800007F0FCF8BDE785E084E042F27030C2F276
:101A900000004AF61151C0F6000109F0F1FAFFE723
:101AA000FFE742F27030C2F2000008F0E9FF08B12F
:101AB000FFE7F6E742F27030C2F200000DF23B1190
:101AC00008F09EFFFFE79DF83B1100200D290490D0
:101AD00007D0FFE79DF83B010A3818BF01200490AA
:101AE000FFE70498C0070028DAD1FFE74CF2803006
:101AF000C0F6000007F0C2F84CF27530C0F60000E6
:101B000007F0BCF846E041F60400C2F2000000789D
:101B1000C00778B1FFE74BF68870C0F6000007F009
:101B2000ADF84BF6AD70C0F6000007F0A7F8FFF770
:101B30005DFD2DE04BF6D670C0F6000007F09EF874
:101B4000FFE7FFE742F27030C2F2000008F098FFB2
:101B500008B1FFE7F6E742F27030C2F200000DF282
:101B60003B1108F04DFFFFE79DF83B1100200D29C8
:101B7000039007D0FFE79DF83B010A3818BF01200A
:101B80000390FFE70398C0070028DAD1FFE7FFE7DB
:101B900000E0FFE7FFE7FFE70A2001F0FFFEC0E5F6
:101BA000FFE7FEE7D0B502AFADF5FF5D84B06C4650
:101BB0006FF30A04A5460DF1100E0EF5BF51CDF8D6
:101BC000FC17C8604BF66470C0F6000000680DF5A5
:101BD00000614FF4006207F017F8DDF800080130EB
:101BE000B8BBFFE70DF1100E0EF5BF5007F018F867
:101BF000DDF8FC070168CDF800184168CDF804183D
:101C00008068CDF8080840F68450C3F68F70CDF890
:101C100010084CF6CD40C3F64C60CDF814084FF0D8
:101C20007E50CDF818080020CDF81C08CDF82C08FF
:101C3000CDF830086120CDF834084BF66470C0F65A
:101C4000000000680DF500614FF4006208F0B0FD7F
:101C5000FFE7DDF8FC07C0680DF500614FF4006296
:101C6000FEF707FBA7F10804A546D0BD70470000AA
:101C700080B582B009F0EEF800EE100AB8EE400A26
:101C80009FED201A80EE010A41F60000C2F200002A
:101C900080ED000A90ED000A42F20C00C2F2000052
:101CA00090ED001A30EE410A8DED010A9DED010A1A
:101CB0009FED151AB4EE410AF1EE10FA1DDDFFE7B3
:101CC00042F20C01C2F20001086842F26C32C2F228
:101CD0000002106041F60000C2F2000002680A60D3
:101CE00091ED000A90ED001A30EE410A42F26430A4
:101CF000C2F2000080ED000AFFE7012002F03EF88A
:101D000002B080BD002474490AD7233D80B510205D
:101D100002F034F880BD000081B0EFF3108072B69D
:101D20000090FFE7FEE7000081B040F22000C2F221
:101D30000000007F8DF803009DF80300012805D006
:101D4000FFE79DF8030003281FD1FFE742F20001DF
:101D5000C4F20201086820F400700860FFE742F254
:101D60000001C4F20201086840F4006008600868DD
:101D700020F400600860FFE742F20001C4F20201B3
:101D8000086840F400700860FFE79DF8030002282F
:101D900005D0FFE79DF80300032817D1FFE7FFE711
:101DA00042F20001C4F20201086840F48050086069
:101DB000086820F480500860FFE742F20001C4F296
:101DC0000201086840F480600860FFE740F22001EB
:101DD000C2F200010020087701B0704781B0009086
:101DE0009DF80000C00748B1FFE742F21401C4F2B9
:101DF0000201086840F004000860FFE742F21401A5
:101E0000C4F20201086840F48030086001B07047F5
:101E100082B00190009142F21401C4F202010868FC
:101E200020F4FC709DF8042040EAC20008600868B5
:101E300040F002000860086840F48030086002B09A
:101E40007047000084B003900193009242F21401A5
:101E5000C4F20201086840F001000860009803998C
:101E60000860BFF36F8F01980399486004B0704712
:101E700089B00590049140208DF80F0005980290DC
:101E80000498019042F21401C4F20201086840F47F
:101E900080200860EFF31080069006980090EFF322
:101EA000108072B60790FFE70198006802990860F9
:101EB0000298043002900198043001909DF80F00C0
:101EC00001388DF80F00FFE79DF80F000028EBD1D7
:101ED000FFE700980890089880F3108809B07047D1
:101EE00080B584B0029002F02FF90190FFE742F232
:101EF0001000C4F202000068C00300280DD5FFE7FF
:101F000002F022F90199401A0299884204D9FFE7A8
:101F100003208DF80F005AE0E9E742F21000C4F206
:101F2000020000684CF2FA3108400090009860B35B
:101F3000FFE7009A40F22001C2F200014868104316
:101F40004860FFE79DF8030010F0C00F0BD0FFE7DB
:101F5000009800F0404242F21801C4F20201086801
:101F600010430860FFE70098800048B1FFE7009841
:101F700020F0404042F21001C4F202010860FFE785
:101F8000FFE701208DF80F0021E0012050B9FFE7A5
:101F900042F21800C4F20200006800F001000128BB
:101FA00008D010E042F21000C4F202000068C0073E
:101FB00048B1FFE7FFE742F21001C4F2020101203D
:101FC0000860FFE7FFE700208DF80F00FFE79DF8AE
:101FD0000F0004B080BD000081B043F20000C2F2E7
:101FE0000000806B45F27861C1F23421884204D14F
:101FF000FFE701208DF8030003E000208DF80300C7
:10200000FFE79DF8030001B07047000080B586B07F
:102010000490039100200190FFE7049890F8580085
:10202000012804D1FFE702208DF817005AE0049937
:10203000012081F85800FFE7FFE70498FEF754FFFE
:102040008DF80B009DF80B00D8BBFFE70498C06D1E
:1020500040F0020020F488500499C8650498006894
:10206000039906F05BF9FFE70498006806F026F88C
:10207000F0B1FFE701980130019001984DF602613F
:10208000C0F20401884212D3FFE70498C06D40F00B
:10209000100020F002000499C865FFE704990020B1
:1020A00081F85800FFE701208DF817001AE0DBE700
:1020B0000498C06D40F0010020F002000499C8654A
:1020C00005E00499C86D40F01000C865FFE7FFE720
:1020D0000499002081F85800FFE79DF80B008DF867
:1020E0001700FFE79DF8170006B080BD81B0009093
:1020F00001B0704781B0009001B0704781B000908E
:1021000001B0704781B0009001B0704781B000907D
:1021100001B0704780B5C0B020901F9100208DF8AD
:102120007B001B901F98C0680021C4F27F01884289
:1021300001D0FFE700E0FFE7FFE7209890F85800A4
:10214000012804D1FFE702208DF88700D2E320990F
:10215000012081F85800FFE7FFE72098006805F0AC
:10216000D5FF002840F0B283FFE7209800681F9950
:102170000A68496805F0DEFF2098006805F0C6FF90
:102180001A902098006805F077FF19901A98002897
:1021900040F0B881FFE71998002840F0B381FFE7CD
:1021A0001F988068B0F1004F0ED1FFE720980068BB
:1021B0001F990968002205F0F7FF209800684FF08A
:1021C000004106F09DF80CE0209800681F9A116805
:1021D000926805F0E9FF20980068002106F090F869
:1021E000FFE71F98406920990968C96801F0180144
:1021F000890888401D901F98006904281CD0FFE7BB
:10220000209800681F990A6809691D9B06F01EF84E
:10221000209800681F9A1169926906F049F8209881
:1022200000681F9A1169127F013AB2FA82F25209CC
:10223000520606F029F864E120980068002105F0B4
:102240000BFF400348B9FFE720980068002105F024
:1022500003FFC0F38460189018E020980068002104
:1022600005F0FAFE90FAA0F03E903E9820B9FFE704
:1022700020208DF8FF0005E03E98B0FA80F08DF840
:10228000FF00FFE79DF8FF001890FFE718981790F0
:102290001F980068400330B9FFE71F980068C0F33B
:1022A0008460169015E01F98006890FAA0F03C90AA
:1022B0003C9820B9FFE720208DF8F70005E03C9816
:1022C000B0FA80F08DF8F700FFE79DF8F700169060
:1022D000FFE717981699884207D1FFE72098006812
:1022E0000022114605F0F8FFFFE720980068012161
:1022F00005F0B2FE400348B9FFE7209800680121CD
:1023000005F0AAFEC0F38460159018E020980068DC
:10231000012105F0A1FE90FAA0F03A903A9820B978
:10232000FFE720208DF8EF0005E03A98B0FA80F042
:102330008DF8EF00FFE79DF8EF001590FFE7159887
:1023400014901F980068400330B9FFE71F98006899
:10235000C0F38460139015E01F98006890FAA0F015
:102360003890389820B9FFE720208DF8E70005E085
:102370003898B0FA80F08DF8E700FFE79DF8E700A5
:102380001390FFE714981399884207D1FFE720982C
:1023900000680121002205F09FFFFFE720980068F8
:1023A000022105F059FE400348B9FFE72098006874
:1023B000022105F051FEC0F38460129018E02098CD
:1023C0000068022105F048FE90FAA0F03690369899
:1023D00020B9FFE720208DF8DF0005E03698B0FA3D
:1023E00080F08DF8DF00FFE79DF8DF001290FFE737
:1023F000129811901F980068400330B9FFE71F98AA
:102400000068C0F38460109015E01F98006890FA8F
:10241000A0F03490349820B9FFE720208DF8D70041
:1024200005E03498B0FA80F08DF8D700FFE79DF80A
:10243000D7001090FFE711981099884207D1FFE765
:10244000209800680221002205F046FFFFE720984F
:102450000068032105F000FE400348B9FFE720981B
:102460000068032105F0F8FDC0F384600F9018E0C8
:1024700020980068032105F0EFFD90FAA0F032905B
:10248000329820B9FFE720208DF8CF0005E0329880
:10249000B0FA80F08DF8CF00FFE79DF8CF000F90E5
:1024A000FFE70F980E901F980068400330B9FFE7D0
:1024B0001F980068C0F384600D9015E01F980068B5
:1024C00090FAA0F03090309820B9FFE720208DF8E6
:1024D000C70005E03098B0FA80F08DF8C700FFE73C
:1024E0009DF8C7000D90FFE70E980D99884207D11F
:1024F000FFE7209800680321002205F0EDFEFFE7CA
:10250000FFE7FFE72098006805F0F0FD002840F0A5
:102510004481FFE7209800681F9A1168D26805F08F
:102520005FFE1F98C0680021C4F27F01884240F01E
:102530003381FFE7209800680C901F9800684003E3
:1025400030B9FFE71F980068C0F384600B9015E076
:102550001F98006890FAA0F02E902E9820B9FFE7FF
:1025600020208DF8BF0005E02E98B0FA80F08DF89D
:10257000BF00FFE79DF8BF000B90FFE70B9801300D
:1025800000F01F0009287DD8FFE71F98006840036E
:1025900030B9FFE71F980068C0F384600A9015E027
:1025A0001F98006890FAA0F02C902C9820B9FFE7B3
:1025B00020208DF8B70005E02C98B0FA80F08DF857
:1025C000B700FFE79DF8B7000A90FFE70A980130CF
:1025D00000F01F00800609901F980068400330B982
:1025E000FFE71F980068C0F38460089015E01F980B
:1025F000006890FAA0F02A902A9820B9FFE72020DE
:102600008DF8AF0005E02A98B0FA80F08DF8AF00A1
:10261000FFE79DF8AF000890FFE70998089901319E
:1026200001F01F0201219140084307901F980068A4
:10263000400330B9FFE71F980068C0F3846006903C
:1026400015E01F98006890FAA0F02890289820B90B
:10265000FFE720208DF8A70005E02898B0FA80F069
:102660008DF8A700FFE79DF8A7000690FFE7079801
:102670000699013101F01F0101EB410140EA0150CF
:10268000059082E01F980068400330B9FFE71F986B
:102690000068C0F38460049015E01F98006890FA09
:1026A000A0F02690269820B9FFE720208DF89F0003
:1026B00005E02698B0FA80F08DF89F00FFE79DF8BE
:1026C0009F000490FFE70498013000F01F0080068F
:1026D00003901F980068400330B9FFE71F98006817
:1026E000C0F38460029015E01F98006890FAA0F093
:1026F0002490249820B9FFE720208DF8970005E06A
:102700002498B0FA80F08DF89700FFE79DF89700C5
:102710000290FFE703980299013101F01F020121A5
:102720009140084301901F980068400330B9FFE7CB
:102730001F980068C0F38460009015E01F9800683F
:1027400090FAA0F02290229820B9FFE720208DF87F
:102750008F0005E02298B0FA80F08DF88F00FFE737
:102760009DF88F000090FFE701990098013000F07C
:102770001F0000EB40020020CFF6206000EB02506B
:10278000084340F000700590FFE70C9805991F9AE8
:10279000926805F009FDFFE7FFE71F98408848F2BF
:1027A0000801084200F09180FFE740F20030C5F2D6
:1027B000000005F039FC1C901F9800680021CCF245
:1027C0002131884208D0FFE71F9800681021C9F224
:1027D000C001884232D1FFE79DF872000006002850
:1027E0002CD4FFE720980068B0F1A04F25D1FFE777
:1027F0001C9840F4000140F20030C5F2000005F0E2
:1028000017FD40F20400C2F200000068800942F6A1
:102810006351C0F23E51A0FB0110800900EB400162
:102820000C2000EB81001B90FFE71B9820B1FFE715
:102830001B9801381B90F8E7FFE745E01F980068F8
:102840000021CCF25271884219D1FFE79DF8730044
:10285000C007A0B9FFE72098006840F20011C5F258
:10286000000188420AD0FFE71C9840F0807140F2D6
:102870000030C5F2000005F0DBFCFFE723E01F9805
:1028800000680021CCF6843188421AD1FFE79DF818
:1028900072004006002814D4FFE72098006840F238
:1028A0000011C5F2000188420AD0FFE71C9840F4ED
:1028B000800140F20030C5F2000005F0B9FCFFE7EE
:1028C00000E0FFE7FFE7FFE7FFE708E02099C86DBA
:1028D00040F02000C86501208DF87B00FFE7FFE78E
:1028E0002099002081F85800FFE79DF87B008DF8C3
:1028F0008700FFE79DF8870040B080BD0000000022
:1029000080B588B0079007980068B0F1A04F40F0FC
:10291000A280FFE744F61800C2F2000000686328B6
:102920001CD8FFE740F60000C2F20000038840F622
:102930005802C2F20002116819441160428840F640
:102940006001C2F2000108681044086044F61801F2
:10295000C2F200010868013008607BE040F65800D0
:10296000C2F200000590006848F21F52C5F2EB1257
:10297000A0FB0210410944F20000C2F200000390E3
:10298000018040F66001C2F2000106910968A1FBD6
:102990000221490944F20202C2F2000204921180AB
:1029A000008800EE100AB8EE400A9FED2F1A8DED58
:1029B000001A20EE010A10EE100AFDF712FD41EC9C
:1029C000100B51EC100B9FED260B53EC102B0293C8
:1029D0000192FDF779FC41EC100B51EC100BFDF767
:1029E00013FD9DED001A0146049844F61002C2F250
:1029F00000021160008800EE100AB8EE400A20EED6
:102A0000010A10EE100AFDF7ECFC019A029B41EC62
:102A1000100B51EC100BFDF757FC41EC100B51EC77
:102A2000100BFDF7F1FCDDF80CC0049B059A06992C
:102A300044F6140EC2F2000ECEF800000020ACF8EE
:102A40000000188044F61803C2F2000318601060FA
:102A50000860FFE7FFE708B080BD00BF00BF00BF10
:102A6000931804560E2DF83F3333533A81B000903B
:102A700001B0704781B0009001B0704781B0009004
:102A800000980068006C01B07047000080B58EB0FF
:102A90000D9000200C900D98006800680B900D9828
:102AA000006840680A9040F20030C5F2000005F06E
:102AB000CBFA05909DF82C00800700281BD5FFE776
:102AC0009DF828008007002815D5FFE70D98C06DF8
:102AD000C006002806D4FFE70D99C86D40F40060D9
:102AE000C865FFE70D98D0F88C1088470D980168ED
:102AF00002200860FFE79DF82C004007002806D55B
:102B0000FFE70A9800F0040004280ED0FFE79DF8C4
:102B10002C000007002840F19B80FFE79DF828006B
:102B20000007002840F19480FFE70D98C06DC006B3
:102B3000002806D4FFE70D99C86D40F40070C86501
:102B4000FFE70D98006805F0E9FA002878D0FFE764
:102B50000D98006840F20011C5F20001884204D1CE
:102B6000FFE74FF0A040049003E00D980068049048
:102B7000FFE704980D99096888420BD0FFE7059894
:102B800040B1FFE70598052804D0FFE7059809281C
:102B900005D1FFE70D980068C068079016E00D9812
:102BA000006840F20011C5F20001884204D1FFE73D
:102BB0004FF0A040039003E00D9800680390FFE7FA
:102BC000039806900698C0680790FFE7079800F4FE
:102BD0000050B0F5005F32D0FFE70D980068006844
:102BE000000700282AD5FFE70D98006805F08EFA47
:102BF000C0B9FFE70D980168486820F00C004860F4
:102C00000D99C86D20F48070C8650D98C06DC00422
:102C1000002806D4FFE70D99C86D40F00100C86593
:102C2000FFE70AE00D99C86D40F01000C8650D99E6
:102C3000086E40F001000866FFE7FFE7FFE7FFE7E7
:102C40000D98C16E88470D9801680C200860FFE759
:102C50009DF82C008006002806D5FFE70A9800F0B2
:102C6000200020280ED0FFE79DF82C004006002809
:102C700040F1B280FFE79DF828004006002840F1AF
:102C8000AB80FFE70D98C06DC006002806D4FFE7B3
:102C90000D99C86D40F40050C865FFE70D980068B5
:102CA00005F0F2F909900D98006805F037FA0890E0
:102CB0000D98006840F20011C5F20001884204D16D
:102CC000FFE74FF0A040029003E00D9800680290EB
:102CD000FFE702980D99096888420BD0FFE7059835
:102CE00040B1FFE70598062804D0FFE705980728BC
:102CF00005D1FFE70D980068C068079016E00D98B1
:102D0000006840F20011C5F20001884204D1FFE7DB
:102D10004FF0A040019003E00D9800680190FFE79C
:102D2000019806900698C0680790FFE70998002868
:102D30004AD0FFE79DF81F00800700280AD5FFE76B
:102D4000089800283FD0FFE79DF81D008006002866
:102D500039D4FFE70D98006800684006002831D597
:102D6000FFE79DF81E00800600282AD4FFE70D9893
:102D7000006805F081F9C0B9FFE70D98016848685F
:102D800020F0600048600D99C86D20F48050C8653F
:102D90000D98C06DC005002806D4FFE70D99C86DD9
:102DA00040F00100C865FFE70AE00D99C86D40F0EA
:102DB0001000C8650D99086E40F001000866FFE735
:102DC000FFE7FFE7FFE7FFE70D98C16F88470D9822
:102DD000016860200860FFE79DF82C0000060028CD
:102DE00013D5FFE79DF82800000600280DD5FFE762
:102DF0000D99C86D40F48030C8650D98416F8847C3
:102E00000D98016880200860FFE79DF82D00C0073D
:102E1000A0B1FFE79DF82900C00778B1FFE70D9941
:102E2000C86D40F40030C8650D98D0F8841088470C
:102E30000D9801684FF480700860FFE79DF82D0041
:102E40008007002815D5FFE79DF829008007002896
:102E50000FD5FFE70D99C86D40F48020C8650D9827
:102E6000D0F8881088470D9801684FF4007008600A
:102E7000FFE79DF82C00C00600283ED5FFE79DF82F
:102E80002800C006002838D5FFE70D98C06B18B998
:102E9000FFE701200C9019E0059860B1FFE740F2D0
:102EA0000030C5F2000005F0C7F818B1FFE70120B7
:102EB0000C90FFE709E00D980068C068C00718B1E2
:102EC000FFE701200C90FFE7FFE7FFE70C980128E0
:102ED0000ED1FFE70D99C86D40F48060C8650D996B
:102EE000086E40F0020008660D98816F8847FFE782
:102EF0000D98016810200860FFE79DF82D0040073D
:102F000000281AD5FFE79DF829004007002814D5AE
:102F1000FFE70D99C86D40F48040C8650D99086EB3
:102F200040F0080008660D9801684FF48060086062
:102F30000D98D0F880108847FFE70EB080BD0000E4
:102F400080B588B0069000208DF817000190069893
:102F500020B9FFE701208DF81F00C2E10698406903
:102F600040B1FFE7069890F82400012801D1FFE75F
:102F7000FFE7FFE70698C06D002852D1FFE70699EA
:102F800042F60110C0F60000C866069942F66D20B0
:102F9000C0F600000867069943F2ED20C0F6000075
:102FA0004867069942F67520C0F6000088670699C2
:102FB00042F2F500C0F60000C867069942F2FD0033
:102FC000C0F60000C1F88000069942F20510C0F674
:102FD0000000C1F88400069942F20D10C0F600000E
:102FE000C1F88800069942F2ED00C0F60000C1F871
:102FF0008C000698D0F8900040B9FFE7069943F29C
:10300000F520C0F60000C1F89000FFE70698D0F860
:1030100090108847069900200866069981F85800A4
:10302000FFE70698006805F051F828B1FFE7069819
:10303000006804F0CFFFFFE70698006805F05EF82F
:10304000F0B9FFE70698006804F0DEFF40F20400E4
:10305000C2F200000068800942F66351C0F23E519E
:10306000A0FB01108109022000EB41000190FFE765
:10307000019820B1FFE7019801380190F8E7FFE7D8
:103080000698006805F03AF870B9FFE70699C86D30
:1030900040F01000C8650699086E40F0010008660F
:1030A00001208DF81700FFE70698006805F02EF85C
:1030B00003900698C06DC006002800F10481FFE768
:1030C0000398002840F0FF80FFE70698C06D40F0AD
:1030D000020020F480700699C8650698006805F023
:1030E00005F8D0B9FFE74FF0A04004F0FFFF0090D3
:1030F00040F20010C5F2000004F0F8FF014600980D
:10310000084348B9FFE70698416840F20030C5F22D
:10311000000005F07FF8FFE7FFE706994A7FC86BDC
:1031200040EA42308A68CB681843104391F8241073
:1031300040EA01400490069890F8240001280BD141
:10314000FFE70698816A0020CFF6FE7000EB414150
:10315000049808430490FFE70698C06A50B1FFE75F
:103160000699C86A096B00F4787001430498084313
:103170000490FFE706980068C06844F20701CFF6A4
:10318000F07108400499084306990968C8600698D8
:103190000068006920F04060069A1168526B104385
:1031A00008610698006804F067FF02900398002801
:1031B00068D1FFE70298002864D1FFE70699087FED
:1031C00091F83810800340EA4100049006980068A6
:1031D000C06844F2020188430499084306990968CB
:1031E000C86006980069A0B1FFE706980168086901
:1031F00040F48030086106980068D0F8C00043F6BB
:10320000FF718843069A116812691043C1F8C00023
:1032100011E006980168086920F48030086106987A
:103220000068D0F8C00043F6FF718843069909682A
:10323000C1F8C000FFE7069890F84000012819D1B6
:10324000FFE706980068006940F2FD7120EA01027C
:10325000069B1968586CD3F848E0D3F84CC040EA94
:103260000E0040EA0C001B6D1843104340F00100B3
:10327000086106E006980168086920F0010008610D
:10328000FFE7FFE70698406901280CD1FFE70698A1
:103290000068006B20F00F00069A1168126A013A6C
:1032A0001043086306E006980168086B20F00F00E1
:1032B0000863FFE70698C06D40F0010020F00200AF
:1032C0000699C86508E00699C86D40F01000C86509
:1032D00001208DF81700FFE79DF817008DF81F00FB
:1032E000FFE79DF81F0008B080BD000081B000908E
:1032F00001B0704780B58CB00B9000200A90099007
:103300000890079006900B980068B0F1A04F09D084
:10331000FFE70B98006840F20011C5F200018842F7
:103320003CD1FFE7FFE741F24C00C4F20200016824
:1033300041F020010160006800F020000590059830
:10334000FFE7FFE741F24C00C4F20200016841F4DC
:1033500000510160006800F4005004900498FFE7F9
:103360000120069003200090079000200190089013
:1033700041F20040C4F60000029006A9039100F05B
:1033800019FD009B019A029803994FF0020CCDF8A9
:1033900018C00793089200F00DFDFFE70CB080BD48
:1033A00080B58AB00890079140F20030C5F2000065
:1033B00004F04AFE029008988069082803D1FFE7CC
:1033C0000820059033E0029840B1FFE702980528F5
:1033D00004D0FFE70298092813D1FFE70898006896
:1033E000C068C00748B1FFE70899C86D40F02000E9
:1033F000C86501208DF82700CCE004200590FFE788
:1034000014E040F20030C5F2000004F015FE48B1AF
:10341000FFE70899C86D40F02000C86501208DF8CD
:103420002700B7E004200590FFE7FFE7FFE700F083
:103430008BFE0690FFE7089800680068059908422F
:1034400028D1FFE70798013018B3FFE700F07CFEB2
:103450000699401A0799884203D8FFE70798B8B938
:10346000FFE7089800680068059908420FD1FFE758
:103470000899C86D40F00400C865FFE7089900206E
:1034800081F85800FFE703208DF8270082E0FFE76E
:10349000FFE7D0E70899C86D40F40070C865089848
:1034A000006804F03BFEF0B1FFE70898407FD0B918
:1034B000FFE70898006800680007002812D5FFE7BA
:1034C0000899C86D20F48070C8650898C06DC00464
:1034D000002806D4FFE70899C86D40F00100C865D0
:1034E000FFE7FFE7FFE70898006840F20011C5F228
:1034F0000001884204D1FFE74FF0A040019003E0B3
:10350000089800680190FFE70198089909688842C7
:103510000BD0FFE7029840B1FFE70298052804D0DE
:10352000FFE70298092805D1FFE708980068C068FE
:10353000049016E00898006840F20011C5F20001FE
:10354000884204D1FFE74FF0A040009003E00898C4
:1035500000680090FFE7009803900398C06804900B
:10356000FFE70598082805D1FFE7089801680820BB
:1035700008600BE09DF811004006002805D4FFE725
:10358000089801680C200860FFE7FFE700208DF82D
:103590002700FFE79DF827000AB080BD80B588B0FE
:1035A000069040F20030C5F2000004F04DFD03909B
:1035B0000698006804F0AAFD002840F0C880FFE7E4
:1035C000FFE7069890F85800012804D1FFE7022091
:1035D0008DF81F00C4E00699012081F85800FFE72C
:1035E000FFE70698FDF7E2FC8DF817009DF817003D
:1035F000002840F0A480FFE70698C06D40F480707A
:1036000040F6016188430699C8650698006840F253
:103610000011C5F20001884204D1FFE74FF0A0403D
:10362000029003E0069800680290FFE7029806996E
:103630000968884203D0FFE7039830B9FFE706998D
:10364000C86D20F48010C865FFE70698C06DC004FF
:10365000002806D5FFE70699086E20F006000866E8
:1036600003E0069900200866FFE7069801681C2021
:103670000860FFE70699002081F85800FFE70698E8
:10368000006840F20011C5F20001884204D1FFE752
:103690004FF0A040019003E0069800680190FFE71A
:1036A00001980699096888420BD0FFE7039840B15A
:1036B000FFE70398052804D0FFE70398092815D1F0
:1036C000FFE706980068C0688001002809D5FFE779
:1036D0000698C06D40F4805020F400500699C865EB
:1036E000FFE70698006804F043FD27E00699C86DDF
:1036F00040F48010C8650698006840F20011C5F2D9
:103700000001884204D1FFE74FF0A040009003E0A1
:10371000069800680090FFE7009804900498C0683D
:103720008001002809D5FFE70698C06D40F480505D
:1037300020F400500699C865FFE7FFE706E0FFE7C1
:103740000699002081F85800FFE7FFE703E0022018
:103750008DF81700FFE79DF817008DF81F00FFE7B1
:103760009DF81F0008B080BD80B584B00290FFE7CF
:10377000029890F85800012804D1FFE702208DF844
:103780000F002DE00299012081F85800FFE7FFE7C4
:1037900002980321FDF7E0FA8DF807009DF8070075
:1037A00098B9FFE70298FDF79FFB8DF807009DF899
:1037B000070048B9FFE70298C06D40F0010020F40F
:1037C00088500299C865FFE7FFE7FFE702990020EC
:1037D00081F85800FFE79DF807008DF80F00FFE71C
:1037E0009DF80F0004B080BD82B0019000208DF8DC
:1037F0000300019890F82500022807D0FFE70199FF
:103800000420C86301208DF803002DE001980168B1
:10381000086820F00E0008600198816C086820F4A8
:103820008070086001980168086820F00100086055
:103830000198016C406C00F01F020120904048602C
:103840000198C16C006D48600198406D58B1FFE768
:103850000198416D086820F4807008600198816DBE
:10386000C06D4860FFE7FFE70199012081F825005E
:10387000FFE70199002081F82400FFE79DF803008D
:1038800002B0704780B582B0019000208DF803002F
:10389000019890F82500022811D0FFE70199042033
:1038A000C8630199012081F82500FFE701990020F4
:1038B00081F82400FFE701208DF803003FE0019824
:1038C0000168086820F00E00086001980168086827
:1038D00020F0010008600198816C086820F4807075
:1038E00008600198016C406C00F01F0201209040BC
:1038F00048600198C16C006D48600198406D58B1F6
:10390000FFE70198416D086820F480700860019815
:10391000816DC06D4860FFE70199012081F82500A5
:10392000FFE70199002081F82400FFE70198806BF0
:1039300020B1FFE70198816B8847FFE7FFE79DF81B
:10394000030002B080BD000080B582B041F23801B2
:10395000C4F202014FF0FF320A60002001900860BB
:1039600041F24001C4F202010A60086041F22801FC
:10397000C4F202010A60086041F22C01C4F20201A3
:103980000A60086041F23001C4F202010A60086076
:1039900001F092F9019802B080BD000080B584B0BA
:1039A000039000F0D1FB0290039801900198013040
:1039B00048B1FFE740F24000C2F200000168019800
:1039C00008440190FFE7FFE700F0BEFB0299401AB0
:1039D0000199884201D2FFE7F6E704B080BD0000FC
:1039E00080B586B004900391FFE740F22000C2F258
:1039F00000000078012804D1FFE702208DF81700AD
:103A0000BBE040F22001C2F2000101200870FFE794
:103A1000FFE74FF47A70FEF763FA8DF80B009DF81C
:103A20000B00002840F09C80FFE740F22001C2F22A
:103A300000010020486042F20000C4F20200006869
:103A40008005002820D5FFE742F20000C4F2020002
:103A50000068400500280FD5FFE742F20001C4F2DC
:103A60000201086820F48060086040F22001C2F280
:103A700000010320087706E040F22001C2F20001B5
:103A800001200877FFE71FE042F20000C4F20200C5
:103A90000068400500280FD5FFE742F20001C4F29C
:103AA0000201086820F48060086040F22001C2F240
:103AB00000010220087706E040F22001C2F2000176
:103AC00000200877FFE7FFE704980068012813D17A
:103AD000FFE704984068FEF781F94FF47A70FEF72B
:103AE000FFF98DF80B0042F21401C4F202010868DC
:103AF00020F00400086030E003994FF0FF300860C8
:103B0000049880680190FFE70198049A9168D26850
:103B10001144884220D2FFE7019804994968FEF7D2
:103B200077F94FF47A70FEF7DBF98DF80B0042F26B
:103B30001401C4F20201086820F4FD7008609DF8C9
:103B40000B0020B1FFE701980399086004E0FFE74C
:103B5000019801300190D7E7FFE7FEF7E5F8FFE7AE
:103B6000FFE740F22001C2F2000100200870FFE7E9
:103B70009DF80B008DF81700FFE79DF8170006B0C1
:103B800080BD000081B001208DF8030042F21400D6
:103B9000C4F20200016841F0004101600068C00FFA
:103BA00020B1FFE700208DF80300FFE79DF8030038
:103BB00001B0704780B588B00690059103930292DA
:103BC00000200090FFE740F22000C2F200000078E1
:103BD000012804D1FFE702208DF81F007BE040F2AE
:103BE0002001C2F2000101200870FFE7FFE74FF457
:103BF0007A70FEF775F98DF807009DF80700002828
:103C00005CD1FFE740F22001C2F2000100204860D1
:103C100042F20000C4F202000068400500280FD5FF
:103C2000FFE742F20001C4F20201086820F480605C
:103C3000086040F22001C2F200010220087706E08D
:103C400040F22001C2F2000100200877FFE7069849
:103C500040B9FFE70598029A039BFEF7F3F80120AD
:103C6000009016E00698012804D0FFE70698022885
:103C70000DD1FFE705980299FEF7FAF80698022899
:103C800004D1FFE74FF480200090FFE700E0FFE75A
:103C9000FFE74FF47A70FEF723F98DF807000098DC
:103CA00048B1FFE7009A42F21401C4F20201086829
:103CB00090430860FFE7FEF737F8FFE7FFE740F2C1
:103CC0002001C2F2000100200870FFE79DF8070004
:103CD0008DF81F00FFE79DF81F0008B080BD0000B1
:103CE00081B000208DF8030042F21400C4F20200FB
:103CF0000068C00FD8B1FFE742F20801C4F2020128
:103D000040F22310C4F26750086048F6AB10CCF6BE
:103D1000EF50086042F21400C4F202000068C00FC5
:103D200020B1FFE701208DF80300FFE7FFE79DF8D2
:103D3000030001B07047000083B0ADF80A00BDF881
:103D40000A00012818D1FFE742F21830C2F2000041
:103D50000068406A0190019842F21401C2F2000129
:103D60000A68801A0090009842F21002C2F2000223
:103D7000106001980860FFE703B0704780B582B01B
:103D8000ADF8060040F21440C4F201000068BDF82E
:103D9000061008420CD0FFE7BDF8060040F21441BF
:103DA000C4F201010860BDF80600FFF7C5FFFFE798
:103DB00002B080BD8BB00A90099100200890FFE707
:103DC000099800680899C840002800F0A581FFE71D
:103DD00009980068089A01219140084007900798C7
:103DE000002800F09581FFE70998406800F0030083
:103DF000012807D0FFE70998406800F00300022877
:103E00002FD1FFE70A9880680690089841000320A8
:103E100000FA01F10698884306900998C06808994D
:103E2000490000FA01F106980843069006980A999D
:103E300088600A98406806900899012000FA01F10C
:103E400006988843069009984068C0F300100899C6
:103E500000FA01F106980843069006980A9948600E
:103E6000FFE70998406800F00300032818D0FFE737
:103E70000A98C068069008984100032000FA01F1F2
:103E8000069888430690099880680899490000FAC6
:103E900001F106980843069006980A99C860FFE762
:103EA0000998406800F00300022826D1FFE70A982D
:103EB00008996FF0030202EA51010844006A069073
:103EC000089800F0070081000F2000FA01F1069821
:103ED0008843069009980069089901F00701890054
:103EE00000FA01F106980843069006980A99089B83
:103EF00002EA530211440862FFE70A98006806903C
:103F000008984100032000FA01F1069888430690C2
:103F10000998406800F003000899490000FA01F18F
:103F200006980843069006980A99086009988079CF
:103F30008007002800F0EB80FFE7FFE741F2600018
:103F4000C4F20200016841F001010160006800F064
:103F5000010005900598FFE7089820F0030008216C
:103F6000C4F2010140580690089800F00300810057
:103F70000F2000FA01F10698884306900A98B0F1E4
:103F8000904F03D1FFE70020049042E00A9840F2EE
:103F90000041C4F60001884203D1FFE701200390ED
:103FA00034E00A9840F60001C4F60001884203D1CB
:103FB000FFE70220029026E00A9840F60041C4F68E
:103FC0000001884203D1FFE70320019018E00A981E
:103FD00041F20001C4F60001884203D1FFE704204A
:103FE00000900AE00A9941F20042C4F6000206205D
:103FF000914208BF05200090FFE700980190FFE77D
:1040000001980290FFE702980390FFE7039804905D
:10401000FFE70498089901F00301890000FA01F113
:104020000698084306900698089921F00301082293
:10403000C4F20102885040F20840C4F20100006856
:104040000690079906988843069009988079C006DB
:10405000002805D5FFE70799069808430690FFE773
:10406000069840F20841C4F20101086040F20C4099
:10407000C4F20100006806900799069888430690EC
:10408000099880798006002805D5FFE707990698EA
:1040900008430690FFE7069840F20C41C4F2010184
:1040A000086040F20440C4F20100006806900799DD
:1040B000069888430690099880798007002805D5DE
:1040C000FFE70799069808430690FFE7069840F235
:1040D0000441C4F20101086040F20040C4F2010052
:1040E0000068069007990698884306900998807999
:1040F000C00728B1FFE70799069808430690FFE735
:10410000069840F20041C4F201010860FFE7FFE7B2
:1041100008980130089053E60BB0704782B00190C8
:10412000ADF802108DF801209DF8010028B1FFE7DD
:10413000BDF802000199886104E0BDF80200019910
:104140008862FFE702B0704742F67830C2F20000A2
:104150000068704783B001900091019890F8410089
:1041600020283BD1FFE7FFE7019890F840000128A5
:1041700004D1FFE702208DF80B0033E00199012004
:1041800081F84000FFE7FFE70199242081F8410012
:1041900001980168086820F0010008600198016832
:1041A000086820F480500860009A01980168086847
:1041B0001043086001980168086840F00100086039
:1041C0000199202081F84100FFE70199002081F842
:1041D0004000FFE700208DF80B0003E002208DF87F
:1041E0000B00FFE79DF80B0003B0704784B002900E
:1041F0000191029890F84100202840D1FFE7FFE7A5
:10420000029890F84000012804D1FFE702208DF8C1
:104210000F0038E00299012081F84000FFE7FFE736
:104220000299242081F8410002980168086820F072
:10423000010008600298006800680090009820F46F
:10424000706000900199009840EA01200090009869
:1042500002990968086002980168086840F0010046
:1042600008600299202081F84100FFE702990020B0
:1042700081F84000FFE700208DF80F0003E00220E6
:104280008DF80F00FFE79DF80F0004B070470000A5
:1042900080B582B00090009820B9FFE701208DF82A
:1042A00007007BE0009890F8410040B9FFE70099D3
:1042B000002081F84000009800F0BAF9FFE700996B
:1042C000242081F8410000980168086820F001006E
:1042D000086000980168406820F0706008610098EC
:1042E0000168886820F4004088600098C068012850
:1042F00007D1FFE700980168806840F400408860BB
:1043000006E000980168806840F404408860FFE798
:104310000098C068022807D1FFE700980168486844
:1043200040F40060486006E000980168486820F4A6
:1043300000604860FFE700980168486848F20002A2
:10434000C0F200221043486000980168C86820F459
:104350000040C860009A1168106953699269184357
:1043600040EA0220C860009A1168D069126A1043BE
:10437000086000980168086840F001000860009932
:1043800000204864009A202182F8411000990863B7
:10439000009981F842008DF80700FFE79DF80700BB
:1043A00002B080BD10B588B084460C980B98DDF83B
:1043B00028E0CDF818C0ADF81610ADF81420ADF80F
:1043C0001230ADF81000069890F84100202840F017
:1043D0002681FFE70A9820B1FFE7BDF8100040B939
:1043E000FFE706994FF40070486401208DF81F0024
:1043F00019E1FFE7069890F84000012804D1FFE793
:1044000002208DF81F000EE10699012081F840007E
:10441000FFE7FFE7FFF798FE0390069803996A46C7
:1044200011604FF400410122192303F0BBFC20B1BD
:10443000FFE701208DF81F00F5E00699222081F8A2
:1044400041000699402081F8420006990020486406
:104450000A99069A5162BDF81010069A518506997C
:1044600048630698BDF81610BDF81420BDF8123048
:10447000DDF830C0039CEE46CEF80440CEF800C014
:1044800003F006FC50B1FFE7FFE70699002081F832
:104490004000FFE701208DF81F00C4E00698408D22
:1044A000B0F5807F14D3FFE70699FF2008850698B2
:1044B000BDF8161090F82820EC4642F20043C8F2EE
:1044C0000003CCF800304FF0807303F041FC14E09F
:1044D0000698408D069908850698BDF8161090F844
:1044E0002820EC4642F20043C8F20003CCF800302A
:1044F0004FF0007303F02CFCFFE7FFE706980C9BDE
:1045000003996A4611600421002203F04BFC20B19C
:10451000FFE701208DF81F0085E006980068406ADB
:104520000699496A08700699486A013048620699F6
:10453000088D013808850699488D01384885069808
:10454000408DE8B3FFE70698008DC8BBFFE70698EB
:104550000C9B03996A4611608021002203F022FC23
:1045600020B1FFE701208DF81F005CE00698408D28
:10457000B0F5807F11D3FFE70699FF2008850698E4
:10458000BDF8161090F82820EC460023CCF8003037
:104590004FF0807303F0DCFB11E00698408D069924
:1045A00008850698BDF8161090F82820EC460023E0
:1045B000CCF800304FF0007303F0CAFBFFE7FFE7D1
:1045C000FFE70698408D002898D1FFE706980C99E0
:1045D000039A03F049FC20B1FFE701208DF81F008A
:1045E00021E0069801682020C86106990A68516890
:1045F0004EF60003CFF6006319405160069981F82A
:1046000041000699002081F84200FFE7069900204A
:1046100081F84000FFE700208DF81F0003E0022032
:104620008DF81F00FFE79DF81F0008B010BD0000C7
:1046300080B58AB0099000200890079006900590F8
:1046400004900998006845F20041C4F200018842D4
:1046500048D1FFE7FFE741F24C00C4F202000168D5
:1046600041F001010160006800F00100039003982F
:10467000FFE7FFE741F24C00C4F20200016841F09D
:1046800002010160006800F0020002900298FFE75A
:104690004FF4004004901220059001200690032062
:1046A0000790042008904FF0904004A90091FFF774
:1046B00081FB00998020049040F20040C4F6000085
:1046C000FFF778FBFFE741F25800C4F202000168EF
:1046D00041F400110160006800F40010019001989D
:1046E000FFE7FFE70AB080BD40F24000C2F20000E1
:1046F000026842F67831C2F200010868104408608E
:104700007047000080B582B000208DF807000320BC
:1047100000F0A6FC0F2000F00DF820B1FFE701200B
:104720008DF8070002E000F04BFCFFE79DF8070062
:1047300002B080BD80B58CB00B9000200590049035
:10474000FFE741F25800C4F20200016841F00401A1
:104750000160006800F0040000900098FFE706A8E0
:1047600003A901F055FB41F20800C4F20200006801
:10477000C0F30220029001F07BFB05900298042810
:1047800004D3FFE7059840000590FFE7059841F244
:104790005971CDF2B711A0FB01014FF0FF3000EBD2
:1047A0005130049040F60C00C2F2000040F60001C7
:1047B000C4F2000101600921C16004994160002137
:1047C0000161816001F0FCFF8DF807009DF8070092
:1047D00028BBFFE740F60C00C2F2000002F0E6F84A
:1047E0008DF807009DF80700C0B9FFE71E2000F014
:1047F00015FC0B980F280CD8FFE70B991E20002200
:1048000000F016FC0B9840F24401C2F2000108606F
:1048100003E001208DF80700FFE7FFE7FFE79DF8C1
:1048200007000CB080BD000080B582B0019006F09A
:1048300011FB00EE100AB8EE400A9FED111A80EE4F
:10484000010A40F60800C2F2000080ED000A90ED77
:10485000000A06F08DF88DED000A9DED000A43F682
:104860000000C2F2000090ED041A20EE010A44F2AA
:104870000C00C2F2000080ED000A02B080BD00BF53
:104880000024744981B0009001B0704781B000905D
:1048900001B0704781B0009001B0704780B584B01E
:1048A000029001910299022081F8360040F22041E5
:1048B000C4F20101086840F02000086002984068D6
:1048C00001280DD0FFE70298806AB0F5000F07D1EC
:1048D000FFE702980168C86820F46060C860FFE7DD
:1048E00002980168086940F00100086102980068B8
:1048F000102141600198029A12689061029803F0B9
:10490000FBFD032804D1FFE703208DF80F002CE006
:10491000029803F01FFD029800F034F8032804D138
:10492000FFE703208DF80F001FE0029801688868F8
:1049300040F01000886002980168886840F002002A
:10494000886002980168086940F0010008610298D7
:104950000168086940F0040008610299012081F8AB
:10496000360000208DF80F00FFE79DF80F0004B01F
:1049700080BD000081B0009001B0704781B0009010
:1049800001B0704781B00090009890F8360001B0F7
:104990007047000080B582B00190019800680068FF
:1049A000C00778B1FFE7019800688068C00740B190
:1049B000FFE701980168012048600198FFF766FF52
:1049C000FFE7FFE701980068006800F0020100209F
:1049D000B0EB510F13D0FFE701980068806800F03A
:1049E00002010020B0EB510F08D0FFE701980168E9
:1049F000022048600198FFF717FFFFE7FFE70198E3
:104A00000068006800F004010020B0EB910F13D0A3
:104A1000FFE701980068806800F004010020B0EB17
:104A2000910F08D0FFE701980168042048600198C1
:104A300000F03EF9FFE7FFE701980068006800F02A
:104A400008010020B0EBD10F13D0FFE701980068F8
:104A5000806800F008010020B0EBD10F08D0FFE71C
:104A600001980168082048600198FFF713FFFFE7ED
:104A7000FFE701980068006800F010010020B0EB2B
:104A8000111F13D0FFE701980068806800F0100143
:104A90000020B0EB111F08D0FFE70198016810203B
:104AA00048600198FFF7EEFEFFE7FFE70198006816
:104AB000006800F020010020B0EB511F13D0FFE789
:104AC00001980068806800F020010020B0EB511FC1
:104AD00008D0FFE701980168202048600198FFF79F
:104AE0004DFFFFE7FFE701980068006800F0400114
:104AF0000020B0EB911F13D0FFE701980068806899
:104B000000F040010020B0EB911F08D0FFE70198B2
:104B10000168402048600198FFF72CFFFFE7FFE79E
:104B200002B080BD80B584B00290029820B9FFE742
:104B300001208DF80F00A9E002984068012806D0F6
:104B4000FFE70298806AB0F5000F01D1FFE7FFE7A9
:104B5000029840694FF6FF71884201D0FFE7FFE7F6
:104B6000029890F8360040B9FFE70299002081F8DA
:104B70003500029800F08EF8FFE70299022081F8D4
:104B8000360002980068C0680190029840680128C9
:104B900006D0FFE70298806AB0F5000F05D1FFE765
:104BA000019820F01E000190FFE7029840694FF63F
:104BB000FF71884208D0FFE7019841F63F71CDF6BA
:104BC000FF7108400190FFE701984FF2FE11CFF608
:104BD00019710840019002994868D1F808C00B6A21
:104BE0004A6A40EA0C0018431043896A014301985D
:104BF000084301900298406840B9FFE702980169B4
:104C0000C0690143019808430190FFE7029840689A
:104C1000012806D0FFE70298806AB0F5000F08D19E
:104C2000FFE70299C86809690143019808430190A8
:104C3000FFE7029840694FF6FF7188420AD0FFE70C
:104C4000029948698A69C969104301430198084378
:104C50000190FFE7019802990968C860029800680E
:104C600047F60041C4F20001884207D1FFE7029AEB
:104C70001168D06A126B10430862FFE702990120A5
:104C800081F8360000208DF80F00FFE79DF80F0037
:104C900004B080BD81B000900098006847F60041E4
:104CA000C4F20001884201D1FFE7FFE701B070477D
:104CB00081B0009001B0704780B58EB0EFF31080E6
:104CC00072B60D9001F056FD002001900C900B90F3
:104CD0000A9009900890032109910A904FF09040A2
:104CE00008A90091FFF766F8009940F20040C4F669
:104CF0000000FFF75FF8009940F60000C4F60000DE
:104D0000FFF758F8009940F60040C4F60000FFF79E
:104D100051F8009941F20000C4F60000FFF74AF88C
:104D2000009941F20040C4F60000FFF743F80099F3
:104D300041F60000C4F60000FFF73CF8019841F28C
:104D40004C02C4F202020292116821F001011160CA
:104D5000116821F002011160116821F00401116055
:104D6000116821F008011160116821F01001116033
:104D7000116821F020011160116821F040011160DB
:104D800041F2600CC4F2020CCDF80CC0DCF800104B
:104D900021F48041CCF8001041F25803C4F2020320
:104DA0000493196821F400311960196821F48021F5
:104DB0001960196821F400211960DCF8001021F451
:104DC0008051CCF80010196821F4804119601968ED
:104DD00021F400411960196821F400111960196863
:104DE00021F480011960196821F080411960DCF814
:104DF000001021F40061CCF80010196821F00101C5
:104E00001960196821F002011960196821F0040184
:104E10001960196821F010011960196821F020014A
:104E20001960DCF8001021F40051CCF80010DCF817
:104E3000001021F48031CCF80010DCF8001021F4CF
:104E40000031CCF80010DCF8001021F48021CCF8FF
:104E50000010116821F480311160196821F000718F
:104E60001960196821F400011960116821F080614E
:104E7000116041F24802C4F20202116821F480512B
:104E80001160116821F001011160116821F0020127
:104E9000116041F24001C4F2020105910A6842F436
:104EA00000620A6041F23803C4F2020306931A68F2
:104EB00042F001021A601A6842F002021A601A688F
:104EC00042F004021A601A6842F010021A601A686E
:104ED00042F020021A600A6842F400520A600A682E
:104EE00042F480320A600A6842F400320A600A68BA
:104EF00042F480220A600A6822F400620A601A689A
:104F000022F001021A601A6822F002021A601A687E
:104F100022F004021A601A6822F010021A601A685D
:104F200022F020021A600A6822F400520A600A681D
:104F300022F480320A600A6822F400320A600A68A9
:104F400022F480220A6041F2280CC4F2020C4FF0D5
:104F5000FF32CCF80020CCF800001A6018600A601C
:104F600008608DF81F00FFE79DF81F0054280BDC38
:104F7000FFE79DF91F0000F047F8FFE79DF81F00CD
:104F800001308DF81F00EFE741F20001C4F2020189
:104F9000086840F480700860FFE741F20000C4F246
:104FA000020000684005002801D4FFE7F5E741F260
:104FB0000801C4F202010020086062B60EB080BD94
:104FC00080B582B0FFE741F26000C4F202000168E0
:104FD00041F001010160006800F0010001900198BA
:104FE000FFE7FFE741F25800C4F20200016841F018
:104FF00080510160006800F0805000900098FFE749
:1050000000F092FA02B080BD80B582B08DF8070042
:105010009DF9070005F012FC02B080BD80B582B09A
:105020008DF807009DF9070005F024FC02B080BD53
:1050300080B586B08DF817000491039205F032FC1C
:1050400002909DF91700019002980499039A03F0C9
:10505000D9FC0146019805F02DFC06B080BD00008A
:1050600080B582B00190019805F064FC02B080BD6B
:1050700080B586B0049000208DF80F00049820B908
:10508000FFE701208DF81700E9E0049890F83A0056
:10509000052804D1FFE701208DF81700DFE0049810
:1050A00090F83A00022804D1FFE701208DF817009C
:1050B000D5E00498806808B9FFE7FFE704988069A5
:1050C00008B1FFE7FFE704988068402801D1FFE7B7
:1050D000FFE70498C06A102801D1FFE7FFE7FFE768
:1050E00041F26000C4F20200016841F00101016078
:1050F000006800F0010002900298FFE7049890F821
:105100003A0028B9FFE70499002081F83900FFE749
:10511000049800F0A9F804988068402805D0FFE7BB
:1051200004988068602838D1FFE704980068006818
:1051300020F01000049A1168D26A104308600498A5
:105140000068006843F61161CEF200010840049B3C
:10515000019319685A68D3F808E0D3F810C042EAFE
:105160000E0242EA0C0293F814E042F4807CBEF195
:10517000010F08BF6246D3F824C042EA0C02D3F8FC
:1051800028C042EA0C02D3F830C042EACC425B6B42
:1051900042EA0362104308603BE00498006800683C
:1051A00020F01000049A1168D26A10430860049835
:1051B0000068006843F61161CEF200010840049BCC
:1051C000009319685A68D3F808E0D3F80CC042EA93
:1051D0000E0242EA0C02D3F810C042EA0C0293F825
:1051E00014E042F4807CBEF1010F08BF6246D3F8A0
:1051F00024C042EA0C02D3F828C042EA0C02D3F8D9
:1052000030C042EACC425B6B42EA03621043086062
:10521000FFE7049800688069C00F88B9FFE7049829
:105220000068806920F03F00049B19689A69D3F8F0
:105230001CC01B6A42EA0C021A4310438861FFE754
:10524000049890F83A0028B9FFE70499012081F802
:105250003A00FFE79DF80F008DF81700FFE79DF873
:10526000170006B080BD000080B588B00790002010
:10527000069005900490039002900798006840F211
:105280000031C4F2010188421BD1FFE7FFE741F280
:105290004C00C4F20200016841F0010101600068A5
:1052A00000F0010001900198FFE70E20029003201A
:1052B0000390002004904FF0904002A9FEF77AFD81
:1052C00024E00798006840F20431C4F201018842EA
:1052D0001BD1FFE7FFE741F24C00C4F20200016876
:1052E00041F001010160006800F0010000900098A9
:1052F000FFE7E020029003200390002004904FF08D
:10530000904002A9FEF756FDFFE7FFE708B080BD19
:1053100082B0019000208DF80300019820B9FFE7CA
:1053200001208DF8030020E0019890F83A0005284C
:1053300004D1FFE701208DF8030015E0019890F8F3
:105340003A0001280BD1FFE701980168086840F096
:10535000010008600199042081F83A0003E001206F
:105360008DF80300FFE7FFE7FFE79DF8030002B0B9
:105370007047000085B00390039800285ED1FFE7D6
:1053800047F20000C4F20000006800F4C060B0F50D
:10539000806F49D1FFE747F28001C4F2000108683D
:1053A00020F48070086047F20002C4F20002116825
:1053B000012060F34A21116040F20401C2F20001B1
:1053C0000968322251434DF68362C4F21B32A1FBBD
:1053D000022100EB91400290FFE747F21400C4F273
:1053E00000000168002049050029019006D5FFE76B
:1053F0000298002818BF01200190FFE70198C0071C
:1054000020B1FFE7029801380290E6E747F2140066
:10541000C4F2000000684005002804D5FFE703201F
:105420008DF813007CE008E047F28001C4F200012F
:10543000086820F480700860FFE76DE00398B0F51D
:10544000007F5ED1FFE747F20000C4F20000006871
:1054500000F4C060B0F5806F49D1FFE747F28001EA
:10546000C4F20001086840F48070086047F200024E
:10547000C4F200021168012060F34A21116040F279
:105480000401C2F200010968322251434DF68362E1
:10549000C4F21B32A1FB022100EB91400290FFE716
:1054A00047F21400C4F200000168002049050029F9
:1054B000009006D5FFE70298002818BF0120009051
:1054C000FFE70098C00720B1FFE70298013802907B
:1054D000E6E747F21400C4F2000000684005002827
:1054E00004D5FFE703208DF8130019E008E047F228
:1054F0008001C4F20001086840F480700860FFE792
:1055000009E047F20001C4F200010868022262F3D8
:105510004A200860FFE7FFE700208DF81300FFE74F
:105520009DF8130005B0704747F20801C4F200016E
:10553000086840F4804008607047000080B586B07D
:10554000059000208DF80B008DF80A0005988078F2
:105550000007002840F1B580FFE700208DF8090022
:1055600041F25800C4F202000068C000002813D4C1
:10557000FFE7FFE741F25800C4F20200016841F082
:1055800080510160006800F0805001900198FFE7B1
:1055900001208DF80900FFE747F20001C4F2000185
:1055A000086840F480700860FEF7CEFD0390FFE7C6
:1055B00047F20000C4F200000068C00500280CD4C7
:1055C000FFE7FEF7C1FD0399401A032804D3FFE764
:1055D00003208DF80B0000E0EAE79DF80B0000289F
:1055E0005BD1FFE741F29000C4F20200006800F4D2
:1055F000407004900498C8B1FFE704980599096CBD
:10560000884213D0FFE741F29001C4F2020108681A
:1056100020F440700490086840F480300860086806
:1056200020F48030086004980860FFE79DF81000BF
:10563000C007E0B1FFE7FEF787FD0390FFE741F207
:105640009000C4F202000068800700280ED4FFE733
:10565000FEF77AFD0399401A41F28931884204D35A
:10566000FFE703208DF80B0000E0E8E7FFE79DF877
:105670000B0060B9FFE741F29001C4F20201086833
:1056800020F44070059A126C1043086004E09DF805
:105690000B008DF80A00FFE704E09DF80B008DF881
:1056A0000A00FFE79DF80900012809D1FFE741F250
:1056B0005801C4F20201086820F080500860FFE73A
:1056C000FFE705980078C00760B1FFE741F2880165
:1056D000C4F20201086820F00300059A52681043E2
:1056E0000860FFE705980078800700280CD5FFE7E1
:1056F00041F28801C4F20201086820F00C00059A0A
:10570000926810430860FFE705980078400700287A
:105710000CD5FFE741F28801C4F20201086820F0CD
:105720003000059AD26810430860FFE705980078BA
:10573000000700280CD5FFE741F28801C4F20201FE
:10574000086820F0C000059A126910430860FFE75E
:1057500005980078800600280CD5FFE741F2880103
:10576000C4F20201086820F44060059A52691043AF
:105770000860FFE705980078400600280CD5FFE791
:1057800041F28801C4F20201086820F44050059AF1
:10579000926910430860FFE705980078000600282A
:1057A0000CD5FFE741F28801C4F20201086820F439
:1057B0004040059AD26910430860FFE70598407899
:1057C000C00760B1FFE741F28801C4F20201086836
:1057D00020F44030059A126A10430860FFE70598EC
:1057E0004078800700280CD5FFE741F28801C4F219
:1057F0000201086820F44020059A526A10430860AC
:10580000FFE705984078400700281BD5FFE741F2E5
:105810008801C4F20201086820F44010059A926AD7
:10582000104308600598806AB0F5801F09D1FFE732
:1058300041F20C01C4F20201086840F480100860D3
:10584000FFE7FFE705984078000700281BD5FFE732
:1058500041F28801C4F20201086820F44000059A70
:10586000D26A104308600598C06AB0F5800F09D16C
:10587000FFE741F20C01C4F20201086840F4801015
:105880000860FFE7FFE705984078C00600281BD5B1
:10589000FFE741F28801C4F20201086820F040707D
:1058A000059A126B104308600598006BB0F1807F79
:1058B00009D1FFE741F20C01C4F20201086840F48B
:1058C00080100860FFE7FFE7059840788006002811
:1058D0001BD5FFE741F28801C4F20201086820F0FD
:1058E0004060059A526B104308600598406BB0F118
:1058F000006F09D1FFE741F20C01C4F20201086810
:1059000040F480100860FFE7FFE705984078400604
:1059100000281BD5FFE741F28801C4F202010868A4
:1059200020F04060059A926B104308600598806BE8
:10593000B0F1006F09D1FFE741F20C01C4F202019E
:10594000086840F480100860FFE7FFE7059840789A
:10595000000600281BD5FFE741F28801C4F20201CE
:10596000086820F04050059AD26B104308600598F3
:10597000C06BB0F1805F09D1FFE741F20C01C4F2C6
:105980000201086840F480300860FFE7FFE79DF8F7
:105990000A0006B080BD000080B586B00490039177
:1059A00000200090049820B9FFE701208DF817002F
:1059B00081E1039842F20001C4F20201096801F09A
:1059C0000F01884216D9FFE742F20000C4F202003C
:1059D000016821F00F01039A11430160006800F093
:1059E0000F000399884204D0FFE701208DF81700CB
:1059F00061E1FFE704980078C007002800F0A38069
:105A0000FFE704984068032839D1FFE741F200001E
:105A1000C4F2020000688001002804D4FFE70120DE
:105A20008DF8170047E103F025F8019001984BF23B
:105A30000141C0F2C441884220D3FFE741F208008F
:105A4000C4F20200006810F0F00F0AD0FFE70498DB
:105A500000788007002810D5FFE70498806860B9B7
:105A6000FFE741F20801C4F202010868082262F36C
:105A70000710086080200090FFE7FFE738E00498F7
:105A8000406802280ED1FFE741F20000C4F2020094
:105A900000688003002804D4FFE701208DF8170078
:105AA00009E10DE041F20000C4F202000068400587
:105AB000002804D4FFE701208DF81700FBE0FFE782
:105AC00000F0FEF9019001984BF20141C0F2C4418F
:105AD00088420CD3FFE741F20801C4F202010868D2
